:100000000C9458000C9480000C9480000C94800098
:100010000C9480000C9480000C9480000C94800060
:100020000C9480000C9480000C9480000C94800050
:100030000C9480000C9480000C9480000C94800040
:100040000C941C020C9480000C9480000C94800092
:100050000C9480000C9480000C9480000C94800020
:100060000C9466020C94800000000000250028001B
:100070002B00040404040404040402020202020229
:10008000030303030303010204081020408001025C
:1000900004081020010204081020000000080002DB
:1000A0000100000304070000000000000000D1046C
:1000B00011241FBECFEFD8E0DEBFCDBF11E0A0E01E
:1000C000B1E0E4EDF9E002C005900D92AE31B10768
:1000D000D9F721E0AEE1B1E001C01D92AD3EB2071B
:1000E000E1F710E0C8E5D0E004C02197FE010E94CE
:1000F000E204C735D107C9F70E9485030C94E804D0
:100100000C9400000895089590E0FC01E656FF4F1E
:100110002491FC01EA57FF4F3491FC01EE58FF4F48
:10012000E491EE23C9F0222339F0233001F1A8F441
:10013000213019F1223029F1F0E0EE0FFF1FE859CC
:10014000FF4FA591B4918FB7F894EC91611126C03F
:1001500030953E233C938FBF08952730A9F0283077
:10016000C9F0243049F7809180008F7D03C08091D1
:1001700080008F7780938000DFCF84B58F7784BD38
:10018000DBCF84B58F7DFBCF8091B0008F778093DC
:10019000B000D2CF8091B0008F7DF9CF3E2BDACF67
:1001A0003FB7F8948091870190918801A0918901CF
:1001B000B0918A0126B5A89B05C02F3F19F0019682
:1001C000A11DB11D3FBFBA2FA92F982F8827BC01B1
:1001D000CD01620F711D811D911D42E0660F771FD9
:1001E000881F991F4A95D1F7089520915F01260F26
:1001F0003327331F21323105ECF42091B701FC0184
:1002000090E080E0243069F082E00895A0915F01E1
:100210002191AC01415C5E4FA40FB52FB11D2C9311
:100220000196861798F380915F01680F60935F01D4
:1002300080E0089581E008951092B70181E08093F5
:10024000B6011092910161E082E10E94840061E0B8
:1002500083E10E948400E9EBF0E080818E7F80835F
:1002600080818D7F808388E48093B80085E48093CB
:10027000BC000895CF93DF9391E090933E018823D3
:10028000B9F0C091B800D091BA008091BC008A7BCF
:100290008093BC0060E082E10E94840060E083E122
:1002A0000E9484000E941C01D093BA00C093B80041
:1002B000DF91CF9108950895E091900180918F0191
:1002C000E81730F4F0E0E25EFE4F808190E00895A0
:1002D0008FEF9FEF08959091900180918F012FEF04
:1002E0003FEF981748F4E92FF0E0E25EFE4F2081DF
:1002F00030E09F5F90939001C901089580918F0134
:1003000090919001891B990B0895CF92DF92EF9203
:10031000FF920F931F93CF93DF937C01CB018A0150
:100320002091BD01222389F0EB016B01C40ED51E83
:10033000CC15DD0569F06991D701ED91FC91019033
:10034000F081E02DC7010995F3CF642F0E94F500DD
:10035000C801DF91CF911F910F91FF90EF90DF9037
:10036000CF900895CF93DF931F92CDB7DEB7698307
:100370002091BD012223F9F02091E001203258F0B4
:1003800021E030E0FC013383228390E080E00F9095
:10039000DF91CF9108958091BE01E82FF0E0E15404
:1003A000FE4F998190838F5F8093BE018093E0011F
:1003B00081E090E0ECCF61E0CE0101960E94F50073
:1003C000F7CF90E080E0089585ED8093BC008091A8
:1003D000B9019091BA01A091BB01B091BC010796FF
:1003E000A11DB11D23E0B695A795979587952A95F0
:1003F000D1F72091BC0024FD03C01092B7010895ED
:100400004091B9015091BA016091BB017091BC015A
:10041000452B462B472B69F30097A105B10541F009
:1004200025E32A95F1F700000197A109B109E1CF71
:100430008091B8010C943A011F920F920FB60F925F
:1004400011242F933F938F939F93AF93BF938091EA
:10045000830190918401A0918501B0918601309132
:10046000820123E0230F2D3758F50196A11DB11D00
:10047000209382018093830190938401A09385014E
:10048000B09386018091870190918801A0918901A4
:10049000B0918A010196A11DB11D809387019093AF
:1004A0008801A0938901B0938A01BF91AF919F9178
:1004B0008F913F912F910F900FBE0F901F90189525
:1004C00026E8230F0296A11DB11DD2CF1F920F92D5
:1004D0000FB60F9211242F933F934F935F936F9317
:1004E0007F938F939F93AF93BF93EF93FF938091ED
:1004F000B900887F803609F44AC0F0F5883209F4E3
:10050000A7C018F5803109F49BC0B8F4882309F41A
:10051000F9C0883009F494C0FF91EF91BF91AF9179
:100520009F918F917F916F915F914F913F912F910B
:100530000F900FBE0F901F901895883109F488C056
:10054000803251F78093B50114C0803409F49DC006
:1005500040F48033B9F38833F9F68093B50185EC24
:10056000B0C0803509F485C0883509F496C0883458
:1005700099F60E94E401D0CF883909F48CC038F58F
:10058000883729F050F4883611F0803729F683E057
:100590008093B7011092810157C0883809F47BC05D
:1005A000803919F0803809F0B7CF8091810180320D
:1005B00008F071C0E091810181E08E0F809381018C
:1005C0008091BB00F0E0EF59FE4F80833DC0803B3F
:1005D00039F0E0F4803A09F479C0883A09F09CCF08
:1005E00084E08093B7011092600110925F01E09166
:1005F0008D01F0918E01099580915F0181110FC0ED
:1006000081E080935F0110923F0109C0803C09F4B2
:10061000A6CF883C09F4A3CF883B09F07DCFE091B9
:10062000600181E08E0F80936001F0E0E15CFE4F9D
:1006300080818093BB009091600180915F0129C00F
:10064000809192018093BB0085EC8093BC0064CFC5
:100650009091B4018091B301981758F5E091B401DD
:1006600081E08E0F8093B401F0E0ED56FE4F808163
:10067000E9CFE091B40181E08E0F8093B4018091C5
:10068000BB00F0E0ED56FE4F80839091B401809165
:10069000B3019817C8F285E8D8CFE091B40181E0A2
:1006A0008E0F8093B4018091BB00F0E0ED56FE4FB9
:1006B00080838091B60181115CCF81E080939101AC
:1006C00084EA8093BC001092B70126CF85EC80931A
:1006D000BC001092B70180918101803230F4E0912A
:1006E0008101F0E0EF59FE4F10826091810170E0CE
:1006F000E0918B01F0918C0181E691E009951092D7
:1007000081010ACF1092B50134CF789484B582600C
:1007100084BD84B5816084BD85B5826085BD85B5A5
:10072000816085BD80916E00816080936E00109223
:10073000810080918100826080938100809181009E
:10074000816080938100809180008160809380002F
:100750008091B10084608093B1008091B00081608D
:100760008093B00080917A00846080937A008091B9
:100770007A00826080937A0080917A008160809311
:100780007A0080917A00806880937A001092C1008C
:100790001092900110928F010E941C0182E890E05B
:1007A00090938E0180938D0183E890E090938C016B
:1007B00080938B0111E090E5892E25EE922E35EC89
:1007C000A32E40E0C42E40E0D42E02E0BB24BA9415
:1007D000C6E1D1E082E1E82E81E0F82E7880229611
:1007E000F70161917F011093BD018092DF011092AA
:1007F000BE011092E00181EE91E00E94B201672DEE
:1008000081EE91E00E94B2013090E001F0E2F31538
:1008100008F48CC00E94D0002B013C018091B701EC
:1008200081115FC00093B7011093B601B092B5017A
:100830001092B4013092B301AFEBB1E0E3E9F1E023
:10084000381286C01092920180919201806A809342
:10085000920180919101813009F07EC01092910146
:100860000E94D0002B013C01809192018093BB003B
:100870008091B9019091BA01A091BB01B091BC01E6
:10088000892B8A2B8B2B99F00E94D0002091B901E3
:100890003091BA014091BB015091BC0164197509B6
:1008A000860997092617370748075907D8F1809115
:1008B000BC0083FDD9CFA092BC000E94D0002B01C8
:1008C0003C018091B701823009F449C08091B501A3
:1008D0008F3F61F18091B501803241F18091B50186
:1008E00025C08091B9019091BA01A091BB01B0914E
:1008F000BC01892B8A2B8B2B09F490CF0E94D0004E
:100900002091B9013091BA014091BB015091BC01D5
:100910006419750986099709261737074807590783
:1009200008F07CCF8091B8010E943A011092BE017C
:100930001092E0011092BD0181E0CE31D80709F09C
:100940004DCFC114D10409F443CF0E94000040CF21
:100950009D9191938F5F74CF9092BC00AECF8091A8
:10096000B9019091BA01A091BB01B091BC01892B52
:100970008A2B8B2B09F4A5CF0E94D0002091B901BE
:100980003091BA014091BB015091BC0164197509C5
:1009900086099709261737074807590708F091CFA6
:1009A000C1CFE1EEF1E01382128288EE93E0A0E085
:1009B000B0E084839583A683B78384E091E091833C
:1009C00080830895EE0FFF1F0590F491E02D0994A8
:0409D000F894FFCFC9
:1009D40000000000B2018501E1015B017E016B01B1
:0E09E4005C0100010203E00003003800EA009D
:00000001FF
